{
  "abi": [
    {
      "inputs": [
        {
          "internalType": "address",
          "name": "_forwarder",
          "type": "address"
        }
      ],
      "stateMutability": "nonpayable",
      "type": "constructor"
    },
    {
      "inputs": [
        {
          "internalType": "address",
          "name": "",
          "type": "address"
        }
      ],
      "name": "NotAdmin",
      "type": "error"
    },
    {
      "inputs": [
        {
          "internalType": "address",
          "name": "",
          "type": "address"
        }
      ],
      "name": "NotForwarder",
      "type": "error"
    },
    {
      "inputs": [
        {
          "internalType": "address",
          "name": "",
          "type": "address"
        }
      ],
      "name": "WalletAlreadyExists",
      "type": "error"
    },
    {
      "inputs": [
        {
          "internalType": "address",
          "name": "",
          "type": "address"
        }
      ],
      "name": "ZeroAddress",
      "type": "error"
    },
    {
      "anonymous": false,
      "inputs": [
        {
          "indexed": false,
          "internalType": "address",
          "name": "",
          "type": "address"
        }
      ],
      "name": "AdminRemoved",
      "type": "event"
    },
    {
      "anonymous": false,
      "inputs": [
        {
          "indexed": false,
          "internalType": "address",
          "name": "",
          "type": "address"
        }
      ],
      "name": "NewAdminAdded",
      "type": "event"
    },
    {
      "inputs": [
        {
          "internalType": "address",
          "name": "",
          "type": "address"
        }
      ],
      "name": "admins",
      "outputs": [
        {
          "internalType": "bool",
          "name": "",
          "type": "bool"
        }
      ],
      "stateMutability": "view",
      "type": "function"
    },
    {
      "inputs": [
        {
          "internalType": "uint256",
          "name": "_amount",
          "type": "uint256"
        }
      ],
      "name": "claimEthers",
      "outputs": [
        {
          "internalType": "bool",
          "name": "success",
          "type": "bool"
        }
      ],
      "stateMutability": "nonpayable",
      "type": "function"
    },
    {
      "inputs": [
        {
          "internalType": "address",
          "name": "_ERC20",
          "type": "address"
        },
        {
          "internalType": "uint256",
          "name": "_amount",
          "type": "uint256"
        }
      ],
      "name": "claimTokens",
      "outputs": [
        {
          "internalType": "bool",
          "name": "success",
          "type": "bool"
        }
      ],
      "stateMutability": "nonpayable",
      "type": "function"
    },
    {
      "inputs": [],
      "name": "createTLSCW",
      "outputs": [],
      "stateMutability": "nonpayable",
      "type": "function"
    },
    {
      "inputs": [],
      "name": "getWallet",
      "outputs": [
        {
          "internalType": "address",
          "name": "",
          "type": "address"
        }
      ],
      "stateMutability": "view",
      "type": "function"
    },
    {
      "inputs": [
        {
          "internalType": "address",
          "name": "forwarder",
          "type": "address"
        }
      ],
      "name": "isTrustedForwarder",
      "outputs": [
        {
          "internalType": "bool",
          "name": "",
          "type": "bool"
        }
      ],
      "stateMutability": "view",
      "type": "function"
    },
    {
      "inputs": [],
      "name": "lockDuration",
      "outputs": [
        {
          "internalType": "uint256",
          "name": "",
          "type": "uint256"
        }
      ],
      "stateMutability": "view",
      "type": "function"
    },
    {
      "inputs": [
        {
          "internalType": "address",
          "name": "",
          "type": "address"
        }
      ],
      "name": "registry",
      "outputs": [
        {
          "internalType": "address",
          "name": "",
          "type": "address"
        }
      ],
      "stateMutability": "view",
      "type": "function"
    },
    {
      "inputs": [
        {
          "internalType": "address",
          "name": "_addr",
          "type": "address"
        }
      ],
      "name": "removeAdmin",
      "outputs": [],
      "stateMutability": "nonpayable",
      "type": "function"
    },
    {
      "inputs": [
        {
          "internalType": "address",
          "name": "_newAdmin",
          "type": "address"
        }
      ],
      "name": "setAdmin",
      "outputs": [],
      "stateMutability": "nonpayable",
      "type": "function"
    },
    {
      "inputs": [
        {
          "internalType": "address",
          "name": "_forwarder",
          "type": "address"
        }
      ],
      "name": "setTrustedForwarder",
      "outputs": [],
      "stateMutability": "nonpayable",
      "type": "function"
    },
    {
      "inputs": [],
      "name": "trustedForwarder",
      "outputs": [
        {
          "internalType": "address",
          "name": "",
          "type": "address"
        }
      ],
      "stateMutability": "view",
      "type": "function"
    }
  ],
  "bytecode": {
    "object": "0x60a06040526206978060015534801561001757600080fd5b50604051610e7a380380610e7a83398101604081905261003691610065565b506002546001600160a01b0316608052336000908152602081905260409020805460ff19166001179055610095565b60006020828403121561007757600080fd5b81516001600160a01b038116811461008e57600080fd5b9392505050565b608051610dca6100b0600039600061039a0152610dca6000f3fe608060405234801561001057600080fd5b50600436106100b45760003560e01c8063572b6c0511610071578063572b6c051461018f578063704b6c02146101a25780637da0a877146101b5578063da742228146101c8578063f6628e15146101db578063fe417fa5146101e357600080fd5b8063038defd7146100b957806304554443146100ff57806313299604146101165780631785f53c146101345780631bbb9a9914610149578063429b62e51461016c575b600080fd5b6100e26100c73660046106f0565b6003602052600090815260409020546001600160a01b031681565b6040516001600160a01b0390911681526020015b60405180910390f35b61010860015481565b6040519081526020016100f6565b336000908152600360205260409020546001600160a01b03166100e2565b6101476101423660046106f0565b6101f6565b005b61015c610157366004610712565b6102ac565b60405190151581526020016100f6565b61015c61017a3660046106f0565b60006020819052908152604090205460ff1681565b61015c61019d3660046106f0565b610398565b6101476101b03660046106f0565b6103ca565b6002546100e2906001600160a01b031681565b6101476101d63660046106f0565b610477565b6101476104cb565b61015c6101f136600461072b565b6105b5565b3360009081526020819052604090205460ff1661022d57604051630bd4212160e11b81523360048201526024015b60405180910390fd5b6001600160a01b03811661025657604051633202e20d60e21b8152336004820152602401610224565b6001600160a01b03811660008181526020818152604091829020805460ff1916905590519182527fa3b62bc36326052d97ea62d63c3d60308ed4c3ea8ac079dd8499f1e9c4f80c0f91015b60405180910390a150565b60006102b733610398565b6102d657604051632ac978d960e11b8152336004820152602401610224565b60006003816102e36106aa565b6001600160a01b039081168252602082019290925260400160002054161461039357600360006103116106aa565b6001600160a01b03908116825260208201929092526040908101600020549051631bbb9a9960e01b815260048101859052911690631bbb9a99906024016020604051808303816000875af115801561036d573d6000803e3d6000fd5b505050506040513d601f19601f820116820180604052508101906103919190610755565b505b919050565b7f00000000000000000000000000000000000000000000000000000000000000006001600160a01b0390811691161490565b3360009081526020819052604090205460ff166103fc57604051630bd4212160e11b8152336004820152602401610224565b6001600160a01b03811661042557604051633202e20d60e21b8152336004820152602401610224565b6001600160a01b03811660008181526020818152604091829020805460ff1916600117905590519182527f2dbe9fb88463d989acccabbb6ee06901f83672eb78e04a11ff48dd8f69a27cda91016102a1565b3360009081526020819052604090205460ff166104a957604051630bd4212160e11b8152336004820152602401610224565b600280546001600160a01b0319166001600160a01b0392909216919091179055565b336000908152600360205260409020546001600160a01b03161561051f573360009081526003602052604090819020549051633c4d084f60e11b81526001600160a01b039091166004820152602401610224565b6002546001546000916001600160a01b031690339061053e9042610777565b60405161054a906106cc565b6001600160a01b0393841681529290911660208301526040820152606001604051809103906000f080158015610584573d6000803e3d6000fd5b5033600090815260036020526040902080546001600160a01b0319166001600160a01b039290921691909117905550565b60006105c033610398565b6105df57604051632ac978d960e11b8152336004820152602401610224565b60006003816105ec6106aa565b6001600160a01b03908116825260208201929092526040016000205416146106a4576003600061061a6106aa565b6001600160a01b0390811682526020820192909252604090810160002054905163fe417fa560e01b815285831660048201526024810185905291169063fe417fa5906044016020604051808303816000875af115801561067e573d6000803e3d6000fd5b505050506040513d601f19601f820116820180604052508101906106a29190610755565b505b92915050565b60006106b533610398565b156106c7575060131936013560601c90565b503390565b6105fc8061079983390190565b80356001600160a01b038116811461039357600080fd5b60006020828403121561070257600080fd5b61070b826106d9565b9392505050565b60006020828403121561072457600080fd5b5035919050565b6000806040838503121561073e57600080fd5b610747836106d9565b946020939093013593505050565b60006020828403121561076757600080fd5b8151801515811461070b57600080fd5b808201808211156106a457634e487b7160e01b600052601160045260246000fdfe60a060405234801561001057600080fd5b506040516105fc3803806105fc83398101604081905261002f91610075565b600180546001600160a01b031916331790556001600160a01b0391909116608052600055506100b1565b80516001600160a01b038116811461007057600080fd5b919050565b60008060006060848603121561008a57600080fd5b61009384610059565b92506100a160208501610059565b9150604084015190509250925092565b6080516105296100d3600039600081816101ce01526103bd01526105296000f3fe60806040526004361061004e5760003560e01c80631bbb9a991461009257806347e7ef24146100c7578063aa5dec6f146100e7578063c45a01551461010b578063fe417fa51461014357600080fd5b3661008d57604080513381523460208201527f1e57e3bb474320be3d2c77138f75b7c3941292d647f5f9634e33a8e94e0e069b910160405180910390a1005b600080fd5b34801561009e57600080fd5b506100b26100ad366004610479565b610163565b60405190151581526020015b60405180910390f35b3480156100d357600080fd5b506100b26100e2366004610492565b610250565b3480156100f357600080fd5b506100fd60005481565b6040519081526020016100be565b34801561011757600080fd5b5060015461012b906001600160a01b031681565b6040516001600160a01b0390911681526020016100be565b34801561014f57600080fd5b506100b261015e366004610492565b61031b565b6001546000906001600160a01b03163314610198576040516384fa6f7160e01b81523360048201526024015b60405180910390fd5b6000544210156101c1576000546040516351458d4160e01b815260040161018f91815260200190565b6040516001600160a01b037f0000000000000000000000000000000000000000000000000000000000000000169083156108fc029084906000818181858888f19350505050158015610217573d6000803e3d6000fd5b506040518281527fe8b7eed472a7ee7f75a1dc14938abee1c4d31fc404ffdcba2694a052c3dd47949060200160405180910390a1919050565b6040516323b872dd60e01b8152336004820152306024820152604481018290526000906001600160a01b038416906323b872dd906064016020604051808303816000875af11580156102a6573d6000803e3d6000fd5b505050506040513d601f19601f820116820180604052508101906102ca91906104ca565b50604080513381526001600160a01b03851660208201529081018390527ff1444b5cad7ce70cb018d1b8edc8618fe303f3c7f034d8d572a6e27facbf2bef906060015b60405180910390a192915050565b6001546000906001600160a01b0316331461034b576040516384fa6f7160e01b815233600482015260240161018f565b600054421015610374576000546040516351458d4160e01b815260040161018f91815260200190565b6001600160a01b0383166103a65760405163961c9a4f60e01b81526001600160a01b038416600482015260240161018f565b60405163a9059cbb60e01b81526001600160a01b037f0000000000000000000000000000000000000000000000000000000000000000811660048301526024820184905284169063a9059cbb906044016020604051808303816000875af1158015610415573d6000803e3d6000fd5b505050506040513d601f19601f8201168201806040525081019061043991906104ca565b50604080516001600160a01b0385168152602081018490527fe42df0d9493dfd0d7f69902c895b94c190a53e8c27876a86f45e7c997d9d8f7c910161030d565b60006020828403121561048b57600080fd5b5035919050565b600080604083850312156104a557600080fd5b82356001600160a01b03811681146104bc57600080fd5b946020939093013593505050565b6000602082840312156104dc57600080fd5b815180151581146104ec57600080fd5b939250505056fea264697066735822122011c08ac0c2e3b6a00381a5a04d3e4deb49e921d53f85be662cf2b26fb8d0daaf64736f6c63430008110033a2646970667358221220fa09b7fac2ec37d0313cb6bdad156eef8bfd29f8637cf36f1f3a3fbc33788de064736f6c63430008110033",
    "linkReferences": {}
  },
  "methodIdentifiers": {
    "admins(address)": "429b62e5",
    "claimEthers(uint256)": "1bbb9a99",
    "claimTokens(address,uint256)": "fe417fa5",
    "createTLSCW()": "f6628e15",
    "getWallet()": "13299604",
    "isTrustedForwarder(address)": "572b6c05",
    "lockDuration()": "04554443",
    "registry(address)": "038defd7",
    "removeAdmin(address)": "1785f53c",
    "setAdmin(address)": "704b6c02",
    "setTrustedForwarder(address)": "da742228",
    "trustedForwarder()": "7da0a877"
  },
  "id": 21
}