{
  "abi": [
    {
      "inputs": [
        {
          "internalType": "address",
          "name": "_forwarder",
          "type": "address"
        }
      ],
      "stateMutability": "nonpayable",
      "type": "constructor"
    },
    {
      "inputs": [
        {
          "internalType": "address",
          "name": "",
          "type": "address"
        }
      ],
      "name": "NotAdmin",
      "type": "error"
    },
    {
      "inputs": [
        {
          "internalType": "address",
          "name": "",
          "type": "address"
        }
      ],
      "name": "NotForwarder",
      "type": "error"
    },
    {
      "inputs": [
        {
          "internalType": "address",
          "name": "",
          "type": "address"
        }
      ],
      "name": "WalletAlreadyExists",
      "type": "error"
    },
    {
      "inputs": [
        {
          "internalType": "address",
          "name": "",
          "type": "address"
        }
      ],
      "name": "ZeroAddress",
      "type": "error"
    },
    {
      "anonymous": false,
      "inputs": [
        {
          "indexed": false,
          "internalType": "address",
          "name": "",
          "type": "address"
        }
      ],
      "name": "AdminRemoved",
      "type": "event"
    },
    {
      "anonymous": false,
      "inputs": [
        {
          "indexed": false,
          "internalType": "address",
          "name": "",
          "type": "address"
        }
      ],
      "name": "NewAdminAdded",
      "type": "event"
    },
    {
      "inputs": [],
      "name": "_trustedForwarder",
      "outputs": [
        {
          "internalType": "address",
          "name": "",
          "type": "address"
        }
      ],
      "stateMutability": "view",
      "type": "function"
    },
    {
      "inputs": [
        {
          "internalType": "address",
          "name": "",
          "type": "address"
        }
      ],
      "name": "admins",
      "outputs": [
        {
          "internalType": "bool",
          "name": "",
          "type": "bool"
        }
      ],
      "stateMutability": "view",
      "type": "function"
    },
    {
      "inputs": [
        {
          "internalType": "uint256",
          "name": "_amount",
          "type": "uint256"
        }
      ],
      "name": "claimEthers",
      "outputs": [
        {
          "internalType": "bool",
          "name": "success",
          "type": "bool"
        }
      ],
      "stateMutability": "nonpayable",
      "type": "function"
    },
    {
      "inputs": [
        {
          "internalType": "address",
          "name": "_ERC20",
          "type": "address"
        },
        {
          "internalType": "uint256",
          "name": "_amount",
          "type": "uint256"
        }
      ],
      "name": "claimTokens",
      "outputs": [
        {
          "internalType": "bool",
          "name": "success",
          "type": "bool"
        }
      ],
      "stateMutability": "nonpayable",
      "type": "function"
    },
    {
      "inputs": [],
      "name": "createTLSCW",
      "outputs": [],
      "stateMutability": "nonpayable",
      "type": "function"
    },
    {
      "inputs": [],
      "name": "getWallet",
      "outputs": [
        {
          "internalType": "address",
          "name": "",
          "type": "address"
        }
      ],
      "stateMutability": "view",
      "type": "function"
    },
    {
      "inputs": [
        {
          "internalType": "address",
          "name": "forwarder",
          "type": "address"
        }
      ],
      "name": "isTrustedForwarder",
      "outputs": [
        {
          "internalType": "bool",
          "name": "",
          "type": "bool"
        }
      ],
      "stateMutability": "view",
      "type": "function"
    },
    {
      "inputs": [],
      "name": "lockDuration",
      "outputs": [
        {
          "internalType": "uint256",
          "name": "",
          "type": "uint256"
        }
      ],
      "stateMutability": "view",
      "type": "function"
    },
    {
      "inputs": [
        {
          "internalType": "address",
          "name": "",
          "type": "address"
        }
      ],
      "name": "registry",
      "outputs": [
        {
          "internalType": "address",
          "name": "",
          "type": "address"
        }
      ],
      "stateMutability": "view",
      "type": "function"
    },
    {
      "inputs": [
        {
          "internalType": "address",
          "name": "_addr",
          "type": "address"
        }
      ],
      "name": "removeAdmin",
      "outputs": [],
      "stateMutability": "nonpayable",
      "type": "function"
    },
    {
      "inputs": [
        {
          "internalType": "address",
          "name": "_newAdmin",
          "type": "address"
        }
      ],
      "name": "setAdmin",
      "outputs": [],
      "stateMutability": "nonpayable",
      "type": "function"
    }
  ],
  "bytecode": {
    "object": "0x60a060405261012c60015534801561001657600080fd5b50604051610df0380380610df083398101604081905261003591610060565b6001600160a01b0316608052336000908152602081905260409020805460ff19166001179055610090565b60006020828403121561007257600080fd5b81516001600160a01b038116811461008957600080fd5b9392505050565b608051610d3e6100b26000396000818161018901526103910152610d3e6000f3fe608060405234801561001057600080fd5b50600436106100a95760003560e01c8063429b62e511610071578063429b62e51461016157806356c022bb14610184578063572b6c05146101ab578063704b6c02146101be578063f6628e15146101d1578063fe417fa5146101d957600080fd5b8063038defd7146100ae57806304554443146100f4578063132996041461010b5780631785f53c146101295780631bbb9a991461013e575b600080fd5b6100d76100bc36600461067d565b6002602052600090815260409020546001600160a01b031681565b6040516001600160a01b0390911681526020015b60405180910390f35b6100fd60015481565b6040519081526020016100eb565b336000908152600260205260409020546001600160a01b03166100d7565b61013c61013736600461067d565b6101ec565b005b61015161014c366004610698565b6102a2565b60405190151581526020016100eb565b61015161016f36600461067d565b60006020819052908152604090205460ff1681565b6100d77f000000000000000000000000000000000000000000000000000000000000000081565b6101516101b936600461067d565b61038f565b61013c6101cc36600461067d565b6103c1565b61013c61046e565b6101516101e73660046106b1565b610541565b3360009081526020819052604090205460ff1661022357604051630bd4212160e11b81523360048201526024015b60405180910390fd5b6001600160a01b03811661024c57604051633202e20d60e21b815233600482015260240161021a565b6001600160a01b03811660008181526020818152604091829020805460ff1916905590519182527fa3b62bc36326052d97ea62d63c3d60308ed4c3ea8ac079dd8499f1e9c4f80c0f91015b60405180910390a150565b60006102ad3361038f565b6102cc57604051632ac978d960e11b815233600482015260240161021a565b60006002816102d9610637565b6001600160a01b039081168252602082019290925260400160002054161461038a5760026000610307610637565b6001600160a01b03908116825260208201929092526040908101600020549051631bbb9a9960e01b815260048101859052911690631bbb9a99906024016020604051808303816000875af1158015610363573d6000803e3d6000fd5b505050506040513d601f19601f8201168201806040525081019061038791906106db565b90505b919050565b7f00000000000000000000000000000000000000000000000000000000000000006001600160a01b0390811691161490565b3360009081526020819052604090205460ff166103f357604051630bd4212160e11b815233600482015260240161021a565b6001600160a01b03811661041c57604051633202e20d60e21b815233600482015260240161021a565b6001600160a01b03811660008181526020818152604091829020805460ff1916600117905590519182527f2dbe9fb88463d989acccabbb6ee06901f83672eb78e04a11ff48dd8f69a27cda9101610297565b336000908152600260205260409020546001600160a01b0316156104c2573360009081526002602052604090819020549051633c4d084f60e11b81526001600160a01b03909116600482015260240161021a565b600033600154426104d39190610704565b6040516104df90610659565b6001600160a01b0390921682526020820152604001604051809103906000f080158015610510573d6000803e3d6000fd5b5033600090815260026020526040902080546001600160a01b0319166001600160a01b039290921691909117905550565b600061054c3361038f565b61056b57604051632ac978d960e11b815233600482015260240161021a565b6000600281610578610637565b6001600160a01b039081168252602082019290925260400160002054161461063157600260006105a6610637565b6001600160a01b0390811682526020820192909252604090810160002054905163fe417fa560e01b815285831660048201526024810185905291169063fe417fa5906044016020604051808303816000875af115801561060a573d6000803e3d6000fd5b505050506040513d601f19601f8201168201806040525081019061062e91906106db565b90505b92915050565b60006106423361038f565b15610654575060131936013560601c90565b503390565b6105e38061072683390190565b80356001600160a01b038116811461038a57600080fd5b60006020828403121561068f57600080fd5b61062e82610666565b6000602082840312156106aa57600080fd5b5035919050565b600080604083850312156106c457600080fd5b6106cd83610666565b946020939093013593505050565b6000602082840312156106ed57600080fd5b815180151581146106fd57600080fd5b9392505050565b8082018082111561063157634e487b7160e01b600052601160045260246000fdfe60a060405234801561001057600080fd5b506040516105e33803806105e383398101604081905261002f91610058565b600180546001600160a01b031916331790556001600160a01b0391909116608052600055610092565b6000806040838503121561006b57600080fd5b82516001600160a01b038116811461008257600080fd5b6020939093015192949293505050565b60805161052f6100b4600039600081816101ce01526103c3015261052f6000f3fe60806040526004361061004e5760003560e01c80631bbb9a991461009257806347e7ef24146100c7578063aa5dec6f146100e7578063c45a01551461010b578063fe417fa51461014357600080fd5b3661008d57604080513381523460208201527f1e57e3bb474320be3d2c77138f75b7c3941292d647f5f9634e33a8e94e0e069b910160405180910390a1005b600080fd5b34801561009e57600080fd5b506100b26100ad36600461047f565b610163565b60405190151581526020015b60405180910390f35b3480156100d357600080fd5b506100b26100e2366004610498565b610253565b3480156100f357600080fd5b506100fd60005481565b6040519081526020016100be565b34801561011757600080fd5b5060015461012b906001600160a01b031681565b6040516001600160a01b0390911681526020016100be565b34801561014f57600080fd5b506100b261015e366004610498565b610321565b6001546000906001600160a01b03163314610198576040516384fa6f7160e01b81523360048201526024015b60405180910390fd5b6000544210156101c1576000546040516351458d4160e01b815260040161018f91815260200190565b6040516001600160a01b037f0000000000000000000000000000000000000000000000000000000000000000169083156108fc029084906000818181858888f19350505050158015610217573d6000803e3d6000fd5b506040518281527fe8b7eed472a7ee7f75a1dc14938abee1c4d31fc404ffdcba2694a052c3dd47949060200160405180910390a1506001919050565b6040516323b872dd60e01b8152336004820152306024820152604481018290526000906001600160a01b038416906323b872dd906064016020604051808303816000875af11580156102a9573d6000803e3d6000fd5b505050506040513d601f19601f820116820180604052508101906102cd91906104d0565b50604080513381526001600160a01b03851660208201529081018390527ff1444b5cad7ce70cb018d1b8edc8618fe303f3c7f034d8d572a6e27facbf2bef906060015b60405180910390a150600192915050565b6001546000906001600160a01b03163314610351576040516384fa6f7160e01b815233600482015260240161018f565b60005442101561037a576000546040516351458d4160e01b815260040161018f91815260200190565b6001600160a01b0383166103ac5760405163961c9a4f60e01b81526001600160a01b038416600482015260240161018f565b60405163a9059cbb60e01b81526001600160a01b037f0000000000000000000000000000000000000000000000000000000000000000811660048301526024820184905284169063a9059cbb906044016020604051808303816000875af115801561041b573d6000803e3d6000fd5b505050506040513d601f19601f8201168201806040525081019061043f91906104d0565b50604080516001600160a01b0385168152602081018490527fe42df0d9493dfd0d7f69902c895b94c190a53e8c27876a86f45e7c997d9d8f7c9101610310565b60006020828403121561049157600080fd5b5035919050565b600080604083850312156104ab57600080fd5b82356001600160a01b03811681146104c257600080fd5b946020939093013593505050565b6000602082840312156104e257600080fd5b815180151581146104f257600080fd5b939250505056fea2646970667358221220a227bc154e90bc74ff99c758d0024b1b6bf1abdbb0a434bf66339d090bc8c21864736f6c63430008110033a2646970667358221220c6a6c4768ad69e31aeef5d06fa3b40c822e003b42a030210867ec36b4e0d518b64736f6c63430008110033",
    "linkReferences": {}
  },
  "methodIdentifiers": {
    "_trustedForwarder()": "56c022bb",
    "admins(address)": "429b62e5",
    "claimEthers(uint256)": "1bbb9a99",
    "claimTokens(address,uint256)": "fe417fa5",
    "createTLSCW()": "f6628e15",
    "getWallet()": "13299604",
    "isTrustedForwarder(address)": "572b6c05",
    "lockDuration()": "04554443",
    "registry(address)": "038defd7",
    "removeAdmin(address)": "1785f53c",
    "setAdmin(address)": "704b6c02"
  },
  "id": 21
}