{
  "abi": [
    {
      "inputs": [
        {
          "internalType": "address",
          "name": "_owner",
          "type": "address"
        },
        {
          "internalType": "uint256",
          "name": "_unlockAt",
          "type": "uint256"
        }
      ],
      "stateMutability": "nonpayable",
      "type": "constructor"
    },
    {
      "inputs": [
        {
          "internalType": "address",
          "name": "",
          "type": "address"
        }
      ],
      "name": "InvalidAccess",
      "type": "error"
    },
    {
      "inputs": [
        {
          "internalType": "address",
          "name": "",
          "type": "address"
        }
      ],
      "name": "InvalidToken",
      "type": "error"
    },
    {
      "inputs": [
        {
          "internalType": "uint256",
          "name": "",
          "type": "uint256"
        }
      ],
      "name": "TokensLocked",
      "type": "error"
    },
    {
      "anonymous": false,
      "inputs": [
        {
          "indexed": false,
          "internalType": "uint256",
          "name": "",
          "type": "uint256"
        }
      ],
      "name": "EtherClaimed",
      "type": "event"
    },
    {
      "anonymous": false,
      "inputs": [
        {
          "indexed": false,
          "internalType": "address",
          "name": "",
          "type": "address"
        },
        {
          "indexed": false,
          "internalType": "uint256",
          "name": "",
          "type": "uint256"
        }
      ],
      "name": "EtherReceived",
      "type": "event"
    },
    {
      "anonymous": false,
      "inputs": [
        {
          "indexed": false,
          "internalType": "address",
          "name": "",
          "type": "address"
        },
        {
          "indexed": false,
          "internalType": "uint256",
          "name": "",
          "type": "uint256"
        }
      ],
      "name": "TokenClaimed",
      "type": "event"
    },
    {
      "anonymous": false,
      "inputs": [
        {
          "indexed": false,
          "internalType": "address",
          "name": "",
          "type": "address"
        },
        {
          "indexed": false,
          "internalType": "address",
          "name": "",
          "type": "address"
        },
        {
          "indexed": false,
          "internalType": "uint256",
          "name": "",
          "type": "uint256"
        }
      ],
      "name": "TokenDeposited",
      "type": "event"
    },
    {
      "inputs": [
        {
          "internalType": "uint256",
          "name": "_amount",
          "type": "uint256"
        }
      ],
      "name": "claimEthers",
      "outputs": [
        {
          "internalType": "bool",
          "name": "success",
          "type": "bool"
        }
      ],
      "stateMutability": "nonpayable",
      "type": "function"
    },
    {
      "inputs": [
        {
          "internalType": "address",
          "name": "_ERC20",
          "type": "address"
        },
        {
          "internalType": "uint256",
          "name": "_amount",
          "type": "uint256"
        }
      ],
      "name": "claimTokens",
      "outputs": [
        {
          "internalType": "bool",
          "name": "success",
          "type": "bool"
        }
      ],
      "stateMutability": "nonpayable",
      "type": "function"
    },
    {
      "inputs": [
        {
          "internalType": "address",
          "name": "_ERC20",
          "type": "address"
        },
        {
          "internalType": "uint256",
          "name": "_amount",
          "type": "uint256"
        }
      ],
      "name": "deposit",
      "outputs": [
        {
          "internalType": "bool",
          "name": "success",
          "type": "bool"
        }
      ],
      "stateMutability": "nonpayable",
      "type": "function"
    },
    {
      "inputs": [],
      "name": "factory",
      "outputs": [
        {
          "internalType": "address",
          "name": "",
          "type": "address"
        }
      ],
      "stateMutability": "view",
      "type": "function"
    },
    {
      "inputs": [],
      "name": "unlockAt",
      "outputs": [
        {
          "internalType": "uint256",
          "name": "",
          "type": "uint256"
        }
      ],
      "stateMutability": "view",
      "type": "function"
    },
    {
      "stateMutability": "payable",
      "type": "receive"
    }
  ],
  "bytecode": {
    "object": "0x60a060405234801561001057600080fd5b506040516105e33803806105e383398101604081905261002f91610058565b600180546001600160a01b031916331790556001600160a01b0391909116608052600055610092565b6000806040838503121561006b57600080fd5b82516001600160a01b038116811461008257600080fd5b6020939093015192949293505050565b60805161052f6100b4600039600081816101ce01526103c3015261052f6000f3fe60806040526004361061004e5760003560e01c80631bbb9a991461009257806347e7ef24146100c7578063aa5dec6f146100e7578063c45a01551461010b578063fe417fa51461014357600080fd5b3661008d57604080513381523460208201527f1e57e3bb474320be3d2c77138f75b7c3941292d647f5f9634e33a8e94e0e069b910160405180910390a1005b600080fd5b34801561009e57600080fd5b506100b26100ad36600461047f565b610163565b60405190151581526020015b60405180910390f35b3480156100d357600080fd5b506100b26100e2366004610498565b610253565b3480156100f357600080fd5b506100fd60005481565b6040519081526020016100be565b34801561011757600080fd5b5060015461012b906001600160a01b031681565b6040516001600160a01b0390911681526020016100be565b34801561014f57600080fd5b506100b261015e366004610498565b610321565b6001546000906001600160a01b03163314610198576040516384fa6f7160e01b81523360048201526024015b60405180910390fd5b6000544210156101c1576000546040516351458d4160e01b815260040161018f91815260200190565b6040516001600160a01b037f0000000000000000000000000000000000000000000000000000000000000000169083156108fc029084906000818181858888f19350505050158015610217573d6000803e3d6000fd5b506040518281527fe8b7eed472a7ee7f75a1dc14938abee1c4d31fc404ffdcba2694a052c3dd47949060200160405180910390a1506001919050565b6040516323b872dd60e01b8152336004820152306024820152604481018290526000906001600160a01b038416906323b872dd906064016020604051808303816000875af11580156102a9573d6000803e3d6000fd5b505050506040513d601f19601f820116820180604052508101906102cd91906104d0565b50604080513381526001600160a01b03851660208201529081018390527ff1444b5cad7ce70cb018d1b8edc8618fe303f3c7f034d8d572a6e27facbf2bef906060015b60405180910390a150600192915050565b6001546000906001600160a01b03163314610351576040516384fa6f7160e01b815233600482015260240161018f565b60005442101561037a576000546040516351458d4160e01b815260040161018f91815260200190565b6001600160a01b0383166103ac5760405163961c9a4f60e01b81526001600160a01b038416600482015260240161018f565b60405163a9059cbb60e01b81526001600160a01b037f0000000000000000000000000000000000000000000000000000000000000000811660048301526024820184905284169063a9059cbb906044016020604051808303816000875af115801561041b573d6000803e3d6000fd5b505050506040513d601f19601f8201168201806040525081019061043f91906104d0565b50604080516001600160a01b0385168152602081018490527fe42df0d9493dfd0d7f69902c895b94c190a53e8c27876a86f45e7c997d9d8f7c9101610310565b60006020828403121561049157600080fd5b5035919050565b600080604083850312156104ab57600080fd5b82356001600160a01b03811681146104c257600080fd5b946020939093013593505050565b6000602082840312156104e257600080fd5b815180151581146104f257600080fd5b939250505056fea2646970667358221220a227bc154e90bc74ff99c758d0024b1b6bf1abdbb0a434bf66339d090bc8c21864736f6c63430008110033",
    "linkReferences": {}
  },
  "methodIdentifiers": {
    "claimEthers(uint256)": "1bbb9a99",
    "claimTokens(address,uint256)": "fe417fa5",
    "deposit(address,uint256)": "47e7ef24",
    "factory()": "c45a0155",
    "unlockAt()": "aa5dec6f"
  },
  "id": 20
}